{
  "_format": "hh-sol-artifact-1",
  "contractName": "Marketplace",
  "sourceName": "contracts/Marketplace.sol",
  "abi": [
    {
      "inputs": [
        {
          "internalType": "address",
          "name": "nftContractAddress",
          "type": "address"
        }
      ],
      "stateMutability": "nonpayable",
      "type": "constructor"
    },
    {
      "anonymous": false,
      "inputs": [
        {
          "indexed": true,
          "internalType": "uint256",
          "name": "tokenId",
          "type": "uint256"
        },
        {
          "indexed": false,
          "internalType": "uint256",
          "name": "price",
          "type": "uint256"
        },
        {
          "indexed": true,
          "internalType": "address",
          "name": "seller",
          "type": "address"
        }
      ],
      "name": "Listed",
      "type": "event"
    },
    {
      "anonymous": false,
      "inputs": [
        {
          "indexed": true,
          "internalType": "uint256",
          "name": "tokenId",
          "type": "uint256"
        },
        {
          "indexed": true,
          "internalType": "address",
          "name": "buyer",
          "type": "address"
        },
        {
          "indexed": false,
          "internalType": "uint256",
          "name": "price",
          "type": "uint256"
        }
      ],
      "name": "Purchased",
      "type": "event"
    },
    {
      "inputs": [
        {
          "internalType": "uint256",
          "name": "tokenId",
          "type": "uint256"
        }
      ],
      "name": "buyNFT",
      "outputs": [],
      "stateMutability": "payable",
      "type": "function"
    },
    {
      "inputs": [
        {
          "internalType": "uint256",
          "name": "tokenId",
          "type": "uint256"
        }
      ],
      "name": "getSalePrice",
      "outputs": [
        {
          "internalType": "uint256",
          "name": "",
          "type": "uint256"
        }
      ],
      "stateMutability": "view",
      "type": "function"
    },
    {
      "inputs": [
        {
          "internalType": "uint256",
          "name": "tokenId",
          "type": "uint256"
        },
        {
          "internalType": "uint256",
          "name": "price",
          "type": "uint256"
        }
      ],
      "name": "listNFTForSale",
      "outputs": [],
      "stateMutability": "nonpayable",
      "type": "function"
    },
    {
      "inputs": [],
      "name": "marketplaceFee",
      "outputs": [
        {
          "internalType": "uint256",
          "name": "",
          "type": "uint256"
        }
      ],
      "stateMutability": "view",
      "type": "function"
    },
    {
      "inputs": [],
      "name": "owner",
      "outputs": [
        {
          "internalType": "address",
          "name": "",
          "type": "address"
        }
      ],
      "stateMutability": "view",
      "type": "function"
    },
    {
      "inputs": [
        {
          "internalType": "uint256",
          "name": "feeBasisPoints",
          "type": "uint256"
        }
      ],
      "name": "setMarketplaceFee",
      "outputs": [],
      "stateMutability": "nonpayable",
      "type": "function"
    },
    {
      "inputs": [
        {
          "internalType": "uint256",
          "name": "",
          "type": "uint256"
        }
      ],
      "name": "tokenSalePrices",
      "outputs": [
        {
          "internalType": "uint256",
          "name": "",
          "type": "uint256"
        }
      ],
      "stateMutability": "view",
      "type": "function"
    },
    {
      "inputs": [],
      "name": "withdrawFunds",
      "outputs": [],
      "stateMutability": "nonpayable",
      "type": "function"
    }
  ],
  "bytecode": "0x6080604052601960025534801561001557600080fd5b506040516113cf3803806113cf83398181016040528101906100379190610190565b600073ffffffffffffffffffffffffffffffffffffffff168173ffffffffffffffffffffffffffffffffffffffff16036100a6576040517f08c379a000000000000000000000000000000000000000000000000000000000815260040161009d90610240565b60405180910390fd5b806000806101000a81548173ffffffffffffffffffffffffffffffffffffffff021916908373ffffffffffffffffffffffffffffffffffffffff16021790555033600160006101000a81548173ffffffffffffffffffffffffffffffffffffffff021916908373ffffffffffffffffffffffffffffffffffffffff16021790555050610260565b600080fd5b600073ffffffffffffffffffffffffffffffffffffffff82169050919050565b600061015d82610132565b9050919050565b61016d81610152565b811461017857600080fd5b50565b60008151905061018a81610164565b92915050565b6000602082840312156101a6576101a561012d565b5b60006101b48482850161017b565b91505092915050565b600082825260208201905092915050565b7f4e465420636f6e747261637420616464726573732063616e6e6f74206265207a60008201527f65726f0000000000000000000000000000000000000000000000000000000000602082015250565b600061022a6023836101bd565b9150610235826101ce565b604082019050919050565b600060208201905081810360008301526102598161021d565b9050919050565b6111608061026f6000396000f3fe60806040526004361061007b5760003560e01c80639407ea981161004e5780639407ea9814610109578063b2733b3914610132578063c106aad91461015b578063f8eb5fc5146101985761007b565b806324600fc31461008057806351ed8288146100975780636a166964146100b35780638da5cb5b146100de575b600080fd5b34801561008c57600080fd5b506100956101d5565b005b6100b160048036038101906100ac9190610ac3565b6102d0565b005b3480156100bf57600080fd5b506100c86105ea565b6040516100d59190610aff565b60405180910390f35b3480156100ea57600080fd5b506100f36105f0565b6040516101009190610b5b565b60405180910390f35b34801561011557600080fd5b50610130600480360381019061012b9190610ac3565b610616565b005b34801561013e57600080fd5b5061015960048036038101906101549190610b76565b6106f4565b005b34801561016757600080fd5b50610182600480360381019061017d9190610ac3565b610a53565b60405161018f9190610aff565b60405180910390f35b3480156101a457600080fd5b506101bf60048036038101906101ba9190610ac3565b610a6b565b6040516101cc9190610aff565b60405180910390f35b600160009054906101000a900473ffffffffffffffffffffffffffffffffffffffff1673ffffffffffffffffffffffffffffffffffffffff163373ffffffffffffffffffffffffffffffffffffffff1614610265576040517f08c379a000000000000000000000000000000000000000000000000000000000815260040161025c90610c13565b60405180910390fd5b600160009054906101000a900473ffffffffffffffffffffffffffffffffffffffff1673ffffffffffffffffffffffffffffffffffffffff166108fc479081150290604051600060405180830381858888f193505050501580156102cd573d6000803e3d6000fd5b50565b6000600360008381526020019081526020016000205490506000811161032b576040517f08c379a000000000000000000000000000000000000000000000000000000000815260040161032290610c7f565b60405180910390fd5b8034101561036e576040517f08c379a000000000000000000000000000000000000000000000000000000000815260040161036590610ceb565b60405180910390fd5b60008060009054906101000a900473ffffffffffffffffffffffffffffffffffffffff1673ffffffffffffffffffffffffffffffffffffffff16636352211e846040518263ffffffff1660e01b81526004016103ca9190610aff565b602060405180830381865afa1580156103e7573d6000803e3d6000fd5b505050506040513d601f19601f8201168201806040525081019061040b9190610d37565b905060006103e8600254846104209190610d93565b61042a9190610e04565b90506000818461043a9190610e35565b905060008054906101000a900473ffffffffffffffffffffffffffffffffffffffff1673ffffffffffffffffffffffffffffffffffffffff166342842e0e8433886040518463ffffffff1660e01b815260040161049993929190610e69565b600060405180830381600087803b1580156104b357600080fd5b505af11580156104c7573d6000803e3d6000fd5b50505050600060036000878152602001908152602001600020819055508273ffffffffffffffffffffffffffffffffffffffff166108fc829081150290604051600060405180830381858888f1935050505015801561052a573d6000803e3d6000fd5b50600160009054906101000a900473ffffffffffffffffffffffffffffffffffffffff1673ffffffffffffffffffffffffffffffffffffffff166108fc839081150290604051600060405180830381858888f19350505050158015610593573d6000803e3d6000fd5b503373ffffffffffffffffffffffffffffffffffffffff16857ffd51b2c9f55c42d2b72ac683526519563be02fc0107f034ff430c05185ff1b66866040516105db9190610aff565b60405180910390a35050505050565b60025481565b600160009054906101000a900473ffffffffffffffffffffffffffffffffffffffff1681565b600160009054906101000a900473ffffffffffffffffffffffffffffffffffffffff1673ffffffffffffffffffffffffffffffffffffffff163373ffffffffffffffffffffffffffffffffffffffff16146106a6576040517f08c379a000000000000000000000000000000000000000000000000000000000815260040161069d90610c13565b60405180910390fd5b60648111156106ea576040517f08c379a00000000000000000000000000000000000000000000000000000000081526004016106e190610eec565b60405180910390fd5b8060028190555050565b60008111610737576040517f08c379a000000000000000000000000000000000000000000000000000000000815260040161072e90610f58565b60405180910390fd5b3373ffffffffffffffffffffffffffffffffffffffff1660008054906101000a900473ffffffffffffffffffffffffffffffffffffffff1673ffffffffffffffffffffffffffffffffffffffff16636352211e846040518263ffffffff1660e01b81526004016107a79190610aff565b602060405180830381865afa1580156107c4573d6000803e3d6000fd5b505050506040513d601f19601f820116820180604052508101906107e89190610d37565b73ffffffffffffffffffffffffffffffffffffffff161461083e576040517f08c379a000000000000000000000000000000000000000000000000000000000815260040161083590610fea565b60405180910390fd5b3073ffffffffffffffffffffffffffffffffffffffff1660008054906101000a900473ffffffffffffffffffffffffffffffffffffffff1673ffffffffffffffffffffffffffffffffffffffff1663081812fc846040518263ffffffff1660e01b81526004016108ae9190610aff565b602060405180830381865afa1580156108cb573d6000803e3d6000fd5b505050506040513d601f19601f820116820180604052508101906108ef9190610d37565b73ffffffffffffffffffffffffffffffffffffffff1614806109a9575060008054906101000a900473ffffffffffffffffffffffffffffffffffffffff1673ffffffffffffffffffffffffffffffffffffffff1663e985e9c533306040518363ffffffff1660e01b815260040161096792919061100a565b602060405180830381865afa158015610984573d6000803e3d6000fd5b505050506040513d601f19601f820116820180604052508101906109a8919061106b565b5b6109e8576040517f08c379a00000000000000000000000000000000000000000000000000000000081526004016109df9061110a565b60405180910390fd5b8060036000848152602001908152602001600020819055503373ffffffffffffffffffffffffffffffffffffffff16827fb4e5606a376800f822ae7ce93010dddb4ebd38ca6db1bdbc2d0a1de90c9079e483604051610a479190610aff565b60405180910390a35050565b60036020528060005260406000206000915090505481565b600060036000838152602001908152602001600020549050919050565b600080fd5b6000819050919050565b610aa081610a8d565b8114610aab57600080fd5b50565b600081359050610abd81610a97565b92915050565b600060208284031215610ad957610ad8610a88565b5b6000610ae784828501610aae565b91505092915050565b610af981610a8d565b82525050565b6000602082019050610b146000830184610af0565b92915050565b600073ffffffffffffffffffffffffffffffffffffffff82169050919050565b6000610b4582610b1a565b9050919050565b610b5581610b3a565b82525050565b6000602082019050610b706000830184610b4c565b92915050565b60008060408385031215610b8d57610b8c610a88565b5b6000610b9b85828601610aae565b9250506020610bac85828601610aae565b9150509250929050565b600082825260208201905092915050565b7f4e6f74206d61726b6574706c616365206f776e65720000000000000000000000600082015250565b6000610bfd601583610bb6565b9150610c0882610bc7565b602082019050919050565b60006020820190508181036000830152610c2c81610bf0565b9050919050565b7f54686973204e4654206973206e6f7420666f722073616c650000000000000000600082015250565b6000610c69601883610bb6565b9150610c7482610c33565b602082019050919050565b60006020820190508181036000830152610c9881610c5c565b9050919050565b7f496e73756666696369656e74207061796d656e74000000000000000000000000600082015250565b6000610cd5601483610bb6565b9150610ce082610c9f565b602082019050919050565b60006020820190508181036000830152610d0481610cc8565b9050919050565b610d1481610b3a565b8114610d1f57600080fd5b50565b600081519050610d3181610d0b565b92915050565b600060208284031215610d4d57610d4c610a88565b5b6000610d5b84828501610d22565b91505092915050565b7f4e487b7100000000000000000000000000000000000000000000000000000000600052601160045260246000fd5b6000610d9e82610a8d565b9150610da983610a8d565b9250828202610db781610a8d565b91508282048414831517610dce57610dcd610d64565b5b5092915050565b7f4e487b7100000000000000000000000000000000000000000000000000000000600052601260045260246000fd5b6000610e0f82610a8d565b9150610e1a83610a8d565b925082610e2a57610e29610dd5565b5b828204905092915050565b6000610e4082610a8d565b9150610e4b83610a8d565b9250828203905081811115610e6357610e62610d64565b5b92915050565b6000606082019050610e7e6000830186610b4c565b610e8b6020830185610b4c565b610e986040830184610af0565b949350505050565b7f46656520746f6f20686967680000000000000000000000000000000000000000600082015250565b6000610ed6600c83610bb6565b9150610ee182610ea0565b602082019050919050565b60006020820190508181036000830152610f0581610ec9565b9050919050565b7f5072696365206d7573742062652067726561746572207468616e207a65726f00600082015250565b6000610f42601f83610bb6565b9150610f4d82610f0c565b602082019050919050565b60006020820190508181036000830152610f7181610f35565b9050919050565b7f4f6e6c7920746865206f776e65722063616e206c6973742074686973204e465460008201527f20666f722073616c650000000000000000000000000000000000000000000000602082015250565b6000610fd4602983610bb6565b9150610fdf82610f78565b604082019050919050565b6000602082019050818103600083015261100381610fc7565b9050919050565b600060408201905061101f6000830185610b4c565b61102c6020830184610b4c565b9392505050565b60008115159050919050565b61104881611033565b811461105357600080fd5b50565b6000815190506110658161103f565b92915050565b60006020828403121561108157611080610a88565b5b600061108f84828501611056565b91505092915050565b7f4d61726b6574706c616365206d75737420626520617070726f76656420746f2060008201527f7472616e73666572204e46540000000000000000000000000000000000000000602082015250565b60006110f4602c83610bb6565b91506110ff82611098565b604082019050919050565b60006020820190508181036000830152611123816110e7565b905091905056fea2646970667358221220429cfa0881818239166f88ae023736ff52c916416dee7eef09516c15acc7e02464736f6c634300081b0033",
  "linkReferences": {},
  "deployedLinkReferences": {}
}