{
  "_format": "hh-sol-artifact-1",
  "contractName": "Auction",
  "sourceName": "contracts/Auction.sol",
  "abi": [
    {
      "inputs": [
        {
          "internalType": "address",
          "name": "_nftContractAddress",
          "type": "address"
        }
      ],
      "stateMutability": "nonpayable",
      "type": "constructor"
    },
    {
      "anonymous": false,
      "inputs": [
        {
          "indexed": true,
          "internalType": "uint256",
          "name": "tokenId",
          "type": "uint256"
        },
        {
          "indexed": false,
          "internalType": "uint256",
          "name": "startingBid",
          "type": "uint256"
        },
        {
          "indexed": false,
          "internalType": "uint256",
          "name": "endTime",
          "type": "uint256"
        }
      ],
      "name": "AuctionCreated",
      "type": "event"
    },
    {
      "anonymous": false,
      "inputs": [
        {
          "indexed": true,
          "internalType": "uint256",
          "name": "tokenId",
          "type": "uint256"
        },
        {
          "indexed": false,
          "internalType": "address",
          "name": "winner",
          "type": "address"
        },
        {
          "indexed": false,
          "internalType": "uint256",
          "name": "winningBid",
          "type": "uint256"
        }
      ],
      "name": "AuctionFinalized",
      "type": "event"
    },
    {
      "anonymous": false,
      "inputs": [
        {
          "indexed": true,
          "internalType": "uint256",
          "name": "tokenId",
          "type": "uint256"
        },
        {
          "indexed": true,
          "internalType": "address",
          "name": "bidder",
          "type": "address"
        },
        {
          "indexed": false,
          "internalType": "uint256",
          "name": "bidAmount",
          "type": "uint256"
        }
      ],
      "name": "BidPlaced",
      "type": "event"
    },
    {
      "inputs": [
        {
          "internalType": "uint256",
          "name": "",
          "type": "uint256"
        }
      ],
      "name": "auctions",
      "outputs": [
        {
          "internalType": "uint256",
          "name": "tokenId",
          "type": "uint256"
        },
        {
          "internalType": "address payable",
          "name": "seller",
          "type": "address"
        },
        {
          "internalType": "uint256",
          "name": "highestBid",
          "type": "uint256"
        },
        {
          "internalType": "address",
          "name": "highestBidder",
          "type": "address"
        },
        {
          "internalType": "uint256",
          "name": "endTime",
          "type": "uint256"
        },
        {
          "internalType": "bool",
          "name": "finalized",
          "type": "bool"
        }
      ],
      "stateMutability": "view",
      "type": "function"
    },
    {
      "inputs": [
        {
          "internalType": "uint256",
          "name": "",
          "type": "uint256"
        },
        {
          "internalType": "address",
          "name": "",
          "type": "address"
        }
      ],
      "name": "bids",
      "outputs": [
        {
          "internalType": "uint256",
          "name": "",
          "type": "uint256"
        }
      ],
      "stateMutability": "view",
      "type": "function"
    },
    {
      "inputs": [
        {
          "internalType": "uint256",
          "name": "tokenId",
          "type": "uint256"
        },
        {
          "internalType": "uint256",
          "name": "startingBid",
          "type": "uint256"
        },
        {
          "internalType": "uint256",
          "name": "duration",
          "type": "uint256"
        }
      ],
      "name": "createAuction",
      "outputs": [],
      "stateMutability": "nonpayable",
      "type": "function"
    },
    {
      "inputs": [
        {
          "internalType": "uint256",
          "name": "tokenId",
          "type": "uint256"
        }
      ],
      "name": "finalizeAuction",
      "outputs": [],
      "stateMutability": "nonpayable",
      "type": "function"
    },
    {
      "inputs": [
        {
          "internalType": "uint256",
          "name": "tokenId",
          "type": "uint256"
        }
      ],
      "name": "getAuctionDetails",
      "outputs": [
        {
          "internalType": "uint256",
          "name": "",
          "type": "uint256"
        },
        {
          "internalType": "address",
          "name": "",
          "type": "address"
        },
        {
          "internalType": "uint256",
          "name": "",
          "type": "uint256"
        },
        {
          "internalType": "address",
          "name": "",
          "type": "address"
        },
        {
          "internalType": "uint256",
          "name": "",
          "type": "uint256"
        },
        {
          "internalType": "bool",
          "name": "",
          "type": "bool"
        }
      ],
      "stateMutability": "view",
      "type": "function"
    },
    {
      "inputs": [
        {
          "internalType": "uint256",
          "name": "tokenId",
          "type": "uint256"
        }
      ],
      "name": "placeBid",
      "outputs": [],
      "stateMutability": "payable",
      "type": "function"
    },
    {
      "inputs": [
        {
          "internalType": "uint256",
          "name": "tokenId",
          "type": "uint256"
        }
      ],
      "name": "withdrawBid",
      "outputs": [],
      "stateMutability": "nonpayable",
      "type": "function"
    }
  ],
  "bytecode": "0x608060405234801561001057600080fd5b50604051611a0f380380611a0f833981810160405281019061003291906100db565b806000806101000a81548173ffffffffffffffffffffffffffffffffffffffff021916908373ffffffffffffffffffffffffffffffffffffffff16021790555050610108565b600080fd5b600073ffffffffffffffffffffffffffffffffffffffff82169050919050565b60006100a88261007d565b9050919050565b6100b88161009d565b81146100c357600080fd5b50565b6000815190506100d5816100af565b92915050565b6000602082840312156100f1576100f0610078565b5b60006100ff848285016100c6565b91505092915050565b6118f8806101176000396000f3fe6080604052600436106100705760003560e01c80639979ef451161004e5780639979ef451461011d578063cda4beef14610139578063e808386314610162578063f20e5e351461018b57610070565b80630eaaf4c8146100755780633f1ffcec1461009e578063571a26a0146100db575b600080fd5b34801561008157600080fd5b5061009c60048036038101906100979190611080565b6101cd565b005b3480156100aa57600080fd5b506100c560048036038101906100c0919061110b565b6103bc565b6040516100d2919061115a565b60405180910390f35b3480156100e757600080fd5b5061010260048036038101906100fd9190611080565b6103e1565b604051610114969594939291906111c0565b60405180910390f35b61013760048036038101906101329190611080565b61046a565b005b34801561014557600080fd5b50610160600480360381019061015b9190611221565b610703565b005b34801561016e57600080fd5b5061018960048036038101906101849190611080565b610ac9565b005b34801561019757600080fd5b506101b260048036038101906101ad9190611080565b610ea6565b6040516101c496959493929190611274565b60405180910390f35b806000600160008381526020019081526020016000206004015411610227576040517f08c379a000000000000000000000000000000000000000000000000000000000815260040161021e90611332565b60405180910390fd5b816001600082815260200190815260200160002060040154421015610281576040517f08c379a00000000000000000000000000000000000000000000000000000000081526004016102789061139e565b60405180910390fd5b60006002600085815260200190815260200160002060003373ffffffffffffffffffffffffffffffffffffffff1673ffffffffffffffffffffffffffffffffffffffff16815260200190815260200160002054905060008111610319576040517f08c379a00000000000000000000000000000000000000000000000000000000081526004016103109061140a565b60405180910390fd5b60006002600086815260200190815260200160002060003373ffffffffffffffffffffffffffffffffffffffff1673ffffffffffffffffffffffffffffffffffffffff168152602001908152602001600020819055503373ffffffffffffffffffffffffffffffffffffffff166108fc829081150290604051600060405180830381858888f193505050501580156103b5573d6000803e3d6000fd5b5050505050565b6002602052816000526040600020602052806000526040600020600091509150505481565b60016020528060005260406000206000915090508060000154908060010160009054906101000a900473ffffffffffffffffffffffffffffffffffffffff16908060020154908060030160009054906101000a900473ffffffffffffffffffffffffffffffffffffffff16908060040154908060050160009054906101000a900460ff16905086565b8060006001600083815260200190815260200160002060040154116104c4576040517f08c379a00000000000000000000000000000000000000000000000000000000081526004016104bb90611332565b60405180910390fd5b816001600082815260200190815260200160002060040154421061051d576040517f08c379a000000000000000000000000000000000000000000000000000000000815260040161051490611476565b60405180910390fd5b60006001600085815260200190815260200160002090508060020154341161057a576040517f08c379a000000000000000000000000000000000000000000000000000000000815260040161057190611508565b60405180910390fd5b600073ffffffffffffffffffffffffffffffffffffffff168160030160009054906101000a900473ffffffffffffffffffffffffffffffffffffffff1673ffffffffffffffffffffffffffffffffffffffff16146106625780600201546002600086815260200190815260200160002060008360030160009054906101000a900473ffffffffffffffffffffffffffffffffffffffff1673ffffffffffffffffffffffffffffffffffffffff1673ffffffffffffffffffffffffffffffffffffffff168152602001908152602001600020600082825461065a9190611557565b925050819055505b348160020181905550338160030160006101000a81548173ffffffffffffffffffffffffffffffffffffffff021916908373ffffffffffffffffffffffffffffffffffffffff1602179055503373ffffffffffffffffffffffffffffffffffffffff16847f0e54eff26401bf69b81b26f60bd85ef47f5d85275c1d268d84f68d6897431c47346040516106f5919061115a565b60405180910390a350505050565b3373ffffffffffffffffffffffffffffffffffffffff1660008054906101000a900473ffffffffffffffffffffffffffffffffffffffff1673ffffffffffffffffffffffffffffffffffffffff16636352211e856040518263ffffffff1660e01b8152600401610773919061115a565b602060405180830381865afa158015610790573d6000803e3d6000fd5b505050506040513d601f19601f820116820180604052508101906107b491906115a0565b73ffffffffffffffffffffffffffffffffffffffff161461080a576040517f08c379a000000000000000000000000000000000000000000000000000000000815260040161080190611619565b60405180910390fd5b6000811161084d576040517f08c379a000000000000000000000000000000000000000000000000000000000815260040161084490611685565b60405180910390fd5b60006001600085815260200190815260200160002060040154146108a6576040517f08c379a000000000000000000000000000000000000000000000000000000000815260040161089d90611717565b60405180910390fd5b60008054906101000a900473ffffffffffffffffffffffffffffffffffffffff1673ffffffffffffffffffffffffffffffffffffffff166342842e0e3330866040518463ffffffff1660e01b815260040161090393929190611737565b600060405180830381600087803b15801561091d57600080fd5b505af1158015610931573d6000803e3d6000fd5b505050506040518060c001604052808481526020013373ffffffffffffffffffffffffffffffffffffffff168152602001838152602001600073ffffffffffffffffffffffffffffffffffffffff16815260200182426109919190611557565b815260200160001515815250600160008581526020019081526020016000206000820151816000015560208201518160010160006101000a81548173ffffffffffffffffffffffffffffffffffffffff021916908373ffffffffffffffffffffffffffffffffffffffff1602179055506040820151816002015560608201518160030160006101000a81548173ffffffffffffffffffffffffffffffffffffffff021916908373ffffffffffffffffffffffffffffffffffffffff1602179055506080820151816004015560a08201518160050160006101000a81548160ff021916908315150217905550905050827fd6eddd1118d71820909c1197aa966dbc15ed6f508554252169cc3d5ccac756ca838342610aae9190611557565b604051610abc92919061176e565b60405180910390a2505050565b806000600160008381526020019081526020016000206004015411610b23576040517f08c379a0000000000000000000000000000000000000000000000000000000008152600401610b1a90611332565b60405180910390fd5b816001600082815260200190815260200160002060040154421015610b7d576040517f08c379a0000000000000000000000000000000000000000000000000000000008152600401610b749061139e565b60405180910390fd5b60006001600085815260200190815260200160002090508060050160009054906101000a900460ff1615610be6576040517f08c379a0000000000000000000000000000000000000000000000000000000008152600401610bdd906117e3565b60405180910390fd5b60018160050160006101000a81548160ff021916908315150217905550600073ffffffffffffffffffffffffffffffffffffffff168160030160009054906101000a900473ffffffffffffffffffffffffffffffffffffffff1673ffffffffffffffffffffffffffffffffffffffff1614610d865760008054906101000a900473ffffffffffffffffffffffffffffffffffffffff1673ffffffffffffffffffffffffffffffffffffffff166342842e0e308360030160009054906101000a900473ffffffffffffffffffffffffffffffffffffffff1684600001546040518463ffffffff1660e01b8152600401610ce093929190611737565b600060405180830381600087803b158015610cfa57600080fd5b505af1158015610d0e573d6000803e3d6000fd5b505050508060010160009054906101000a900473ffffffffffffffffffffffffffffffffffffffff1673ffffffffffffffffffffffffffffffffffffffff166108fc82600201549081150290604051600060405180830381858888f19350505050158015610d80573d6000803e3d6000fd5b50610e3e565b60008054906101000a900473ffffffffffffffffffffffffffffffffffffffff1673ffffffffffffffffffffffffffffffffffffffff166342842e0e308360010160009054906101000a900473ffffffffffffffffffffffffffffffffffffffff1684600001546040518463ffffffff1660e01b8152600401610e0b93929190611862565b600060405180830381600087803b158015610e2557600080fd5b505af1158015610e39573d6000803e3d6000fd5b505050505b837f4d9113a1377d665eaa1f9168a9c9080f2e488cb820b10149de3d6d2e0f2780c78260030160009054906101000a900473ffffffffffffffffffffffffffffffffffffffff168360020154604051610e98929190611899565b60405180910390a250505050565b600080600080600080866000600160008381526020019081526020016000206004015411610f09576040517f08c379a0000000000000000000000000000000000000000000000000000000008152600401610f0090611332565b60405180910390fd5b6000600160008a81526020019081526020016000206040518060c0016040529081600082015481526020016001820160009054906101000a900473ffffffffffffffffffffffffffffffffffffffff1673ffffffffffffffffffffffffffffffffffffffff1673ffffffffffffffffffffffffffffffffffffffff168152602001600282015481526020016003820160009054906101000a900473ffffffffffffffffffffffffffffffffffffffff1673ffffffffffffffffffffffffffffffffffffffff1673ffffffffffffffffffffffffffffffffffffffff168152602001600482015481526020016005820160009054906101000a900460ff1615151515815250509050806000015181602001518260400151836060015184608001518560a00151975097509750975097509750505091939550919395565b600080fd5b6000819050919050565b61105d8161104a565b811461106857600080fd5b50565b60008135905061107a81611054565b92915050565b60006020828403121561109657611095611045565b5b60006110a48482850161106b565b91505092915050565b600073ffffffffffffffffffffffffffffffffffffffff82169050919050565b60006110d8826110ad565b9050919050565b6110e8816110cd565b81146110f357600080fd5b50565b600081359050611105816110df565b92915050565b6000806040838503121561112257611121611045565b5b60006111308582860161106b565b9250506020611141858286016110f6565b9150509250929050565b6111548161104a565b82525050565b600060208201905061116f600083018461114b565b92915050565b6000611180826110ad565b9050919050565b61119081611175565b82525050565b61119f816110cd565b82525050565b60008115159050919050565b6111ba816111a5565b82525050565b600060c0820190506111d5600083018961114b565b6111e26020830188611187565b6111ef604083018761114b565b6111fc6060830186611196565b611209608083018561114b565b61121660a08301846111b1565b979650505050505050565b60008060006060848603121561123a57611239611045565b5b60006112488682870161106b565b93505060206112598682870161106b565b925050604061126a8682870161106b565b9150509250925092565b600060c082019050611289600083018961114b565b6112966020830188611196565b6112a3604083018761114b565b6112b06060830186611196565b6112bd608083018561114b565b6112ca60a08301846111b1565b979650505050505050565b600082825260208201905092915050565b7f53756261737461206e6f20657869737465000000000000000000000000000000600082015250565b600061131c6011836112d5565b9150611327826112e6565b602082019050919050565b6000602082019050818103600083015261134b8161130f565b9050919050565b7f4c6120737562617374612061756e206573746120616374697661000000000000600082015250565b6000611388601a836112d5565b915061139382611352565b602082019050919050565b600060208201905081810360008301526113b78161137b565b9050919050565b7f4e6f207469656e657320666f6e646f7320706172612072657469726172000000600082015250565b60006113f4601d836112d5565b91506113ff826113be565b602082019050919050565b60006020820190508181036000830152611423816113e7565b9050919050565b7f4c612073756261737461206861207465726d696e61646f000000000000000000600082015250565b60006114606017836112d5565b915061146b8261142a565b602082019050919050565b6000602082019050818103600083015261148f81611453565b9050919050565b7f4c61206f6665727461206465626520736572206d61796f722061206c6120616360008201527f7475616c00000000000000000000000000000000000000000000000000000000602082015250565b60006114f26024836112d5565b91506114fd82611496565b604082019050919050565b60006020820190508181036000830152611521816114e5565b9050919050565b7f4e487b7100000000000000000000000000000000000000000000000000000000600052601160045260246000fd5b60006115628261104a565b915061156d8361104a565b925082820190508082111561158557611584611528565b5b92915050565b60008151905061159a816110df565b92915050565b6000602082840312156115b6576115b5611045565b5b60006115c48482850161158b565b91505092915050565b7f4e6f206572657320656c2070726f706965746172696f2064656c204e46540000600082015250565b6000611603601e836112d5565b915061160e826115cd565b602082019050919050565b60006020820190508181036000830152611632816115f6565b9050919050565b7f4475726163696f6e206465626520736572206d61796f72206120300000000000600082015250565b600061166f601b836112d5565b915061167a82611639565b602082019050919050565b6000602082019050818103600083015261169e81611662565b9050919050565b7f59612065786973746520756e612073756261737461207061726120657374652060008201527f4e46540000000000000000000000000000000000000000000000000000000000602082015250565b60006117016023836112d5565b915061170c826116a5565b604082019050919050565b60006020820190508181036000830152611730816116f4565b9050919050565b600060608201905061174c6000830186611196565b6117596020830185611196565b611766604083018461114b565b949350505050565b6000604082019050611783600083018561114b565b611790602083018461114b565b9392505050565b7f537562617374612079612066696e616c697a6164610000000000000000000000600082015250565b60006117cd6015836112d5565b91506117d882611797565b602082019050919050565b600060208201905081810360008301526117fc816117c0565b9050919050565b6000819050919050565b600061182861182361181e846110ad565b611803565b6110ad565b9050919050565b600061183a8261180d565b9050919050565b600061184c8261182f565b9050919050565b61185c81611841565b82525050565b60006060820190506118776000830186611196565b6118846020830185611853565b611891604083018461114b565b949350505050565b60006040820190506118ae6000830185611196565b6118bb602083018461114b565b939250505056fea264697066735822122032248eb76b2338de2cf22e1f4413c0fab5ee5595d32b4914b9019e616d13bacc64736f6c634300081b0033",
  "linkReferences": {},
  "deployedLinkReferences": {}
}