{
  "_format": "hh-sol-artifact-1",
  "contractName": "NFT",
  "sourceName": "contracts/NFT.sol",
  "abi": [
    {
      "inputs": [],
      "stateMutability": "nonpayable",
      "type": "constructor"
    },
    {
      "anonymous": false,
      "inputs": [
        {
          "indexed": true,
          "internalType": "address",
          "name": "owner",
          "type": "address"
        },
        {
          "indexed": true,
          "internalType": "address",
          "name": "approved",
          "type": "address"
        },
        {
          "indexed": true,
          "internalType": "uint256",
          "name": "tokenId",
          "type": "uint256"
        }
      ],
      "name": "Approval",
      "type": "event"
    },
    {
      "anonymous": false,
      "inputs": [
        {
          "indexed": true,
          "internalType": "address",
          "name": "owner",
          "type": "address"
        },
        {
          "indexed": true,
          "internalType": "address",
          "name": "operator",
          "type": "address"
        },
        {
          "indexed": false,
          "internalType": "bool",
          "name": "approved",
          "type": "bool"
        }
      ],
      "name": "ApprovalForAll",
      "type": "event"
    },
    {
      "anonymous": false,
      "inputs": [
        {
          "indexed": true,
          "internalType": "address",
          "name": "recipient",
          "type": "address"
        },
        {
          "indexed": false,
          "internalType": "uint256",
          "name": "tokenId",
          "type": "uint256"
        },
        {
          "indexed": false,
          "internalType": "string",
          "name": "tokenURI",
          "type": "string"
        }
      ],
      "name": "Minted",
      "type": "event"
    },
    {
      "anonymous": false,
      "inputs": [
        {
          "indexed": true,
          "internalType": "address",
          "name": "previousOwner",
          "type": "address"
        },
        {
          "indexed": true,
          "internalType": "address",
          "name": "newOwner",
          "type": "address"
        }
      ],
      "name": "OwnershipTransferred",
      "type": "event"
    },
    {
      "anonymous": false,
      "inputs": [
        {
          "indexed": true,
          "internalType": "address",
          "name": "from",
          "type": "address"
        },
        {
          "indexed": true,
          "internalType": "address",
          "name": "to",
          "type": "address"
        },
        {
          "indexed": true,
          "internalType": "uint256",
          "name": "tokenId",
          "type": "uint256"
        }
      ],
      "name": "Transfer",
      "type": "event"
    },
    {
      "inputs": [
        {
          "internalType": "address",
          "name": "to",
          "type": "address"
        },
        {
          "internalType": "uint256",
          "name": "tokenId",
          "type": "uint256"
        }
      ],
      "name": "approve",
      "outputs": [],
      "stateMutability": "nonpayable",
      "type": "function"
    },
    {
      "inputs": [
        {
          "internalType": "address",
          "name": "owner",
          "type": "address"
        }
      ],
      "name": "balanceOf",
      "outputs": [
        {
          "internalType": "uint256",
          "name": "",
          "type": "uint256"
        }
      ],
      "stateMutability": "view",
      "type": "function"
    },
    {
      "inputs": [],
      "name": "getAllMintedNFTs",
      "outputs": [
        {
          "internalType": "uint256[]",
          "name": "",
          "type": "uint256[]"
        },
        {
          "internalType": "string[]",
          "name": "",
          "type": "string[]"
        }
      ],
      "stateMutability": "view",
      "type": "function"
    },
    {
      "inputs": [
        {
          "internalType": "uint256",
          "name": "tokenId",
          "type": "uint256"
        }
      ],
      "name": "getApproved",
      "outputs": [
        {
          "internalType": "address",
          "name": "",
          "type": "address"
        }
      ],
      "stateMutability": "view",
      "type": "function"
    },
    {
      "inputs": [
        {
          "internalType": "address",
          "name": "owner",
          "type": "address"
        },
        {
          "internalType": "address",
          "name": "operator",
          "type": "address"
        }
      ],
      "name": "isApprovedForAll",
      "outputs": [
        {
          "internalType": "bool",
          "name": "",
          "type": "bool"
        }
      ],
      "stateMutability": "view",
      "type": "function"
    },
    {
      "inputs": [
        {
          "internalType": "address",
          "name": "recipient",
          "type": "address"
        },
        {
          "internalType": "string",
          "name": "_tokenURI",
          "type": "string"
        }
      ],
      "name": "mintNFT",
      "outputs": [
        {
          "internalType": "uint256",
          "name": "",
          "type": "uint256"
        }
      ],
      "stateMutability": "nonpayable",
      "type": "function"
    },
    {
      "inputs": [],
      "name": "name",
      "outputs": [
        {
          "internalType": "string",
          "name": "",
          "type": "string"
        }
      ],
      "stateMutability": "view",
      "type": "function"
    },
    {
      "inputs": [],
      "name": "owner",
      "outputs": [
        {
          "internalType": "address",
          "name": "",
          "type": "address"
        }
      ],
      "stateMutability": "view",
      "type": "function"
    },
    {
      "inputs": [
        {
          "internalType": "uint256",
          "name": "tokenId",
          "type": "uint256"
        }
      ],
      "name": "ownerOf",
      "outputs": [
        {
          "internalType": "address",
          "name": "",
          "type": "address"
        }
      ],
      "stateMutability": "view",
      "type": "function"
    },
    {
      "inputs": [],
      "name": "renounceOwnership",
      "outputs": [],
      "stateMutability": "nonpayable",
      "type": "function"
    },
    {
      "inputs": [
        {
          "internalType": "address",
          "name": "from",
          "type": "address"
        },
        {
          "internalType": "address",
          "name": "to",
          "type": "address"
        },
        {
          "internalType": "uint256",
          "name": "tokenId",
          "type": "uint256"
        }
      ],
      "name": "safeTransferFrom",
      "outputs": [],
      "stateMutability": "nonpayable",
      "type": "function"
    },
    {
      "inputs": [
        {
          "internalType": "address",
          "name": "from",
          "type": "address"
        },
        {
          "internalType": "address",
          "name": "to",
          "type": "address"
        },
        {
          "internalType": "uint256",
          "name": "tokenId",
          "type": "uint256"
        },
        {
          "internalType": "bytes",
          "name": "data",
          "type": "bytes"
        }
      ],
      "name": "safeTransferFrom",
      "outputs": [],
      "stateMutability": "nonpayable",
      "type": "function"
    },
    {
      "inputs": [
        {
          "internalType": "address",
          "name": "operator",
          "type": "address"
        },
        {
          "internalType": "bool",
          "name": "approved",
          "type": "bool"
        }
      ],
      "name": "setApprovalForAll",
      "outputs": [],
      "stateMutability": "nonpayable",
      "type": "function"
    },
    {
      "inputs": [
        {
          "internalType": "string",
          "name": "baseUri",
          "type": "string"
        }
      ],
      "name": "setBaseUri",
      "outputs": [],
      "stateMutability": "nonpayable",
      "type": "function"
    },
    {
      "inputs": [
        {
          "internalType": "bytes4",
          "name": "interfaceId",
          "type": "bytes4"
        }
      ],
      "name": "supportsInterface",
      "outputs": [
        {
          "internalType": "bool",
          "name": "",
          "type": "bool"
        }
      ],
      "stateMutability": "view",
      "type": "function"
    },
    {
      "inputs": [],
      "name": "symbol",
      "outputs": [
        {
          "internalType": "string",
          "name": "",
          "type": "string"
        }
      ],
      "stateMutability": "view",
      "type": "function"
    },
    {
      "inputs": [
        {
          "internalType": "uint256",
          "name": "tokenId",
          "type": "uint256"
        }
      ],
      "name": "tokenURI",
      "outputs": [
        {
          "internalType": "string",
          "name": "",
          "type": "string"
        }
      ],
      "stateMutability": "view",
      "type": "function"
    },
    {
      "inputs": [
        {
          "internalType": "address",
          "name": "from",
          "type": "address"
        },
        {
          "internalType": "address",
          "name": "to",
          "type": "address"
        },
        {
          "internalType": "uint256",
          "name": "tokenId",
          "type": "uint256"
        }
      ],
      "name": "transferFrom",
      "outputs": [],
      "stateMutability": "nonpayable",
      "type": "function"
    },
    {
      "inputs": [
        {
          "internalType": "address",
          "name": "newOwner",
          "type": "address"
        }
      ],
      "name": "transferOwnership",
      "outputs": [],
      "stateMutability": "nonpayable",
      "type": "function"
    }
  ],
  "bytecode": "0x608060405234801561001057600080fd5b506040518060400160405280600381526020017f4e465400000000000000000000000000000000000000000000000000000000008152506040518060400160405280600381526020017f4e46540000000000000000000000000000000000000000000000000000000000815250816000908161008c91906103de565b50806001908161009c91906103de565b5050506100bb6100b06100c060201b60201c565b6100c860201b60201c565b6104b0565b600033905090565b6000600660009054906101000a900473ffffffffffffffffffffffffffffffffffffffff16905081600660006101000a81548173ffffffffffffffffffffffffffffffffffffffff021916908373ffffffffffffffffffffffffffffffffffffffff1602179055508173ffffffffffffffffffffffffffffffffffffffff168173ffffffffffffffffffffffffffffffffffffffff167f8be0079c531659141344cd1fd0a4f28419497f9722a3daafe3b4186f6b6457e060405160405180910390a35050565b600081519050919050565b7f4e487b7100000000000000000000000000000000000000000000000000000000600052604160045260246000fd5b7f4e487b7100000000000000000000000000000000000000000000000000000000600052602260045260246000fd5b6000600282049050600182168061020f57607f821691505b602082108103610222576102216101c8565b5b50919050565b60008190508160005260206000209050919050565b60006020601f8301049050919050565b600082821b905092915050565b60006008830261028a7fffffffffffffffffffffffffffffffffffffffffffffffffffffffffffffffff8261024d565b610294868361024d565b95508019841693508086168417925050509392505050565b6000819050919050565b6000819050919050565b60006102db6102d66102d1846102ac565b6102b6565b6102ac565b9050919050565b6000819050919050565b6102f5836102c0565b610309610301826102e2565b84845461025a565b825550505050565b600090565b61031e610311565b6103298184846102ec565b505050565b5b8181101561034d57610342600082610316565b60018101905061032f565b5050565b601f8211156103925761036381610228565b61036c8461023d565b8101602085101561037b578190505b61038f6103878561023d565b83018261032e565b50505b505050565b600082821c905092915050565b60006103b560001984600802610397565b1980831691505092915050565b60006103ce83836103a4565b9150826002028217905092915050565b6103e78261018e565b67ffffffffffffffff811115610400576103ff610199565b5b61040a82546101f7565b610415828285610351565b600060209050601f8311600181146104485760008415610436578287015190505b61044085826103c2565b8655506104a8565b601f19841661045686610228565b60005b8281101561047e57848901518255600182019150602085019450602081019050610459565b8683101561049b5784890151610497601f8916826103a4565b8355505b6001600288020188555050505b505050505050565b613383806104bf6000396000f3fe608060405234801561001057600080fd5b50600436106101215760003560e01c80638da5cb5b116100ad578063c87b56dd11610071578063c87b56dd146102f2578063db761fca14610322578063e985e9c514610341578063eacabe1414610371578063f2fde38b146103a157610121565b80638da5cb5b1461026257806395d89b4114610280578063a0bcfc7f1461029e578063a22cb465146102ba578063b88d4fde146102d657610121565b806323b872dd116100f457806323b872dd146101c057806342842e0e146101dc5780636352211e146101f857806370a0823114610228578063715018a61461025857610121565b806301ffc9a71461012657806306fdde0314610156578063081812fc14610174578063095ea7b3146101a4575b600080fd5b610140600480360381019061013b9190611c9c565b6103bd565b60405161014d9190611ce4565b60405180910390f35b61015e61049f565b60405161016b9190611d8f565b60405180910390f35b61018e60048036038101906101899190611de7565b610531565b60405161019b9190611e55565b60405180910390f35b6101be60048036038101906101b99190611e9c565b610577565b005b6101da60048036038101906101d59190611edc565b61068e565b005b6101f660048036038101906101f19190611edc565b6106ee565b005b610212600480360381019061020d9190611de7565b61070e565b60405161021f9190611e55565b60405180910390f35b610242600480360381019061023d9190611f2f565b610794565b60405161024f9190611f6b565b60405180910390f35b61026061084b565b005b61026a61085f565b6040516102779190611e55565b60405180910390f35b610288610889565b6040516102959190611d8f565b60405180910390f35b6102b860048036038101906102b391906120bb565b61091b565b005b6102d460048036038101906102cf9190612130565b610936565b005b6102f060048036038101906102eb9190612211565b61094c565b005b61030c60048036038101906103079190611de7565b6109ae565b6040516103199190611d8f565b60405180910390f35b61032a610b14565b60405161033892919061245e565b60405180910390f35b61035b60048036038101906103569190612495565b610c52565b6040516103689190611ce4565b60405180910390f35b61038b600480360381019061038691906124d5565b610ce6565b6040516103989190611f6b565b60405180910390f35b6103bb60048036038101906103b69190611f2f565b610e29565b005b60007f80ac58cd000000000000000000000000000000000000000000000000000000007bffffffffffffffffffffffffffffffffffffffffffffffffffffffff1916827bffffffffffffffffffffffffffffffffffffffffffffffffffffffff1916148061048857507f5b5e139f000000000000000000000000000000000000000000000000000000007bffffffffffffffffffffffffffffffffffffffffffffffffffffffff1916827bffffffffffffffffffffffffffffffffffffffffffffffffffffffff1916145b80610498575061049782610eac565b5b9050919050565b6060600080546104ae90612560565b80601f01602080910402602001604051908101604052809291908181526020018280546104da90612560565b80156105275780601f106104fc57610100808354040283529160200191610527565b820191906000526020600020905b81548152906001019060200180831161050a57829003601f168201915b5050505050905090565b600061053c82610f16565b6004600083815260200190815260200160002060009054906101000a900473ffffffffffffffffffffffffffffffffffffffff169050919050565b60006105828261070e565b90508073ffffffffffffffffffffffffffffffffffffffff168373ffffffffffffffffffffffffffffffffffffffff16036105f2576040517f08c379a00000000000000000000000000000000000000000000000000000000081526004016105e990612603565b60405180910390fd5b8073ffffffffffffffffffffffffffffffffffffffff16610611610f61565b73ffffffffffffffffffffffffffffffffffffffff161480610640575061063f8161063a610f61565b610c52565b5b61067f576040517f08c379a000000000000000000000000000000000000000000000000000000000815260040161067690612695565b60405180910390fd5b6106898383610f69565b505050565b61069f610699610f61565b82611022565b6106de576040517f08c379a00000000000000000000000000000000000000000000000000000000081526004016106d590612727565b60405180910390fd5b6106e98383836110b7565b505050565b6107098383836040518060200160405280600081525061094c565b505050565b60008061071a836113b0565b9050600073ffffffffffffffffffffffffffffffffffffffff168173ffffffffffffffffffffffffffffffffffffffff160361078b576040517f08c379a000000000000000000000000000000000000000000000000000000000815260040161078290612793565b60405180910390fd5b80915050919050565b60008073ffffffffffffffffffffffffffffffffffffffff168273ffffffffffffffffffffffffffffffffffffffff1603610804576040517f08c379a00000000000000000000000000000000000000000000000000000000081526004016107fb90612825565b60405180910390fd5b600360008373ffffffffffffffffffffffffffffffffffffffff1673ffffffffffffffffffffffffffffffffffffffff168152602001908152602001600020549050919050565b6108536113ed565b61085d600061146b565b565b6000600660009054906101000a900473ffffffffffffffffffffffffffffffffffffffff16905090565b60606001805461089890612560565b80601f01602080910402602001604051908101604052809291908181526020018280546108c490612560565b80156109115780601f106108e657610100808354040283529160200191610911565b820191906000526020600020905b8154815290600101906020018083116108f457829003601f168201915b5050505050905090565b6109236113ed565b806009908161093291906129f1565b5050565b610948610941610f61565b8383611531565b5050565b61095d610957610f61565b83611022565b61099c576040517f08c379a000000000000000000000000000000000000000000000000000000000815260040161099390612727565b60405180910390fd5b6109a88484848461169d565b50505050565b60606109b9826116f9565b6109f8576040517f08c379a00000000000000000000000000000000000000000000000000000000081526004016109ef90612b35565b60405180910390fd5b6000600860008481526020019081526020016000208054610a1890612560565b80601f0160208091040260200160405190810160405280929190818152602001828054610a4490612560565b8015610a915780601f10610a6657610100808354040283529160200191610a91565b820191906000526020600020905b815481529060010190602001808311610a7457829003601f168201915b505050505090506000610aa261173a565b90506000815103610ab7578192505050610b0f565b6000825111610ae7578084604051602001610ad3929190612bb2565b604051602081830303815290604052610b0a565b8082604051602001610afa929190612bda565b6040516020818303038152906040525b925050505b919050565b6060806000610b2360076117cc565b905060008167ffffffffffffffff811115610b4157610b40611f90565b5b604051908082528060200260200182016040528015610b6f5781602001602082028036833780820191505090505b50905060008267ffffffffffffffff811115610b8e57610b8d611f90565b5b604051908082528060200260200182016040528015610bc157816020015b6060815260200190600190039081610bac5790505b5090506000600190505b838111610c44578083600183610be19190612c2d565b81518110610bf257610bf1612c61565b5b602002602001018181525050610c07816109ae565b82600183610c159190612c2d565b81518110610c2657610c25612c61565b5b60200260200101819052508080610c3c90612c90565b915050610bcb565b508181945094505050509091565b6000600560008473ffffffffffffffffffffffffffffffffffffffff1673ffffffffffffffffffffffffffffffffffffffff16815260200190815260200160002060008373ffffffffffffffffffffffffffffffffffffffff1673ffffffffffffffffffffffffffffffffffffffff16815260200190815260200160002060009054906101000a900460ff16905092915050565b6000610cf06113ed565b6000825111610d34576040517f08c379a0000000000000000000000000000000000000000000000000000000008152600401610d2b90612d24565b60405180910390fd5b600073ffffffffffffffffffffffffffffffffffffffff168373ffffffffffffffffffffffffffffffffffffffff1603610da3576040517f08c379a0000000000000000000000000000000000000000000000000000000008152600401610d9a90612d90565b60405180910390fd5b610dad60076117da565b6000610db960076117cc565b9050610dc584826117f0565b610dcf8184611a0d565b8373ffffffffffffffffffffffffffffffffffffffff167fe7cd4ce7f2a465edc730269a1305e8a48bad821e8fb7e152ec413829c01a53c48285604051610e17929190612db0565b60405180910390a28091505092915050565b610e316113ed565b600073ffffffffffffffffffffffffffffffffffffffff168173ffffffffffffffffffffffffffffffffffffffff1603610ea0576040517f08c379a0000000000000000000000000000000000000000000000000000000008152600401610e9790612e52565b60405180910390fd5b610ea98161146b565b50565b60007f01ffc9a7000000000000000000000000000000000000000000000000000000007bffffffffffffffffffffffffffffffffffffffffffffffffffffffff1916827bffffffffffffffffffffffffffffffffffffffffffffffffffffffff1916149050919050565b610f1f816116f9565b610f5e576040517f08c379a0000000000000000000000000000000000000000000000000000000008152600401610f5590612793565b60405180910390fd5b50565b600033905090565b816004600083815260200190815260200160002060006101000a81548173ffffffffffffffffffffffffffffffffffffffff021916908373ffffffffffffffffffffffffffffffffffffffff160217905550808273ffffffffffffffffffffffffffffffffffffffff16610fdc8361070e565b73ffffffffffffffffffffffffffffffffffffffff167f8c5be1e5ebec7d5bd14f71427d1e84f3dd0314c0f7b2291e5b200ac8c7c3b92560405160405180910390a45050565b60008061102e8361070e565b90508073ffffffffffffffffffffffffffffffffffffffff168473ffffffffffffffffffffffffffffffffffffffff161480611070575061106f8185610c52565b5b806110ae57508373ffffffffffffffffffffffffffffffffffffffff1661109684610531565b73ffffffffffffffffffffffffffffffffffffffff16145b91505092915050565b8273ffffffffffffffffffffffffffffffffffffffff166110d78261070e565b73ffffffffffffffffffffffffffffffffffffffff161461112d576040517f08c379a000000000000000000000000000000000000000000000000000000000815260040161112490612ee4565b60405180910390fd5b600073ffffffffffffffffffffffffffffffffffffffff168273ffffffffffffffffffffffffffffffffffffffff160361119c576040517f08c379a000000000000000000000000000000000000000000000000000000000815260040161119390612f76565b60405180910390fd5b6111a98383836001611a7a565b8273ffffffffffffffffffffffffffffffffffffffff166111c98261070e565b73ffffffffffffffffffffffffffffffffffffffff161461121f576040517f08c379a000000000000000000000000000000000000000000000000000000000815260040161121690612ee4565b60405180910390fd5b6004600082815260200190815260200160002060006101000a81549073ffffffffffffffffffffffffffffffffffffffff02191690556001600360008573ffffffffffffffffffffffffffffffffffffffff1673ffffffffffffffffffffffffffffffffffffffff168152602001908152602001600020600082825403925050819055506001600360008473ffffffffffffffffffffffffffffffffffffffff1673ffffffffffffffffffffffffffffffffffffffff16815260200190815260200160002060008282540192505081905550816002600083815260200190815260200160002060006101000a81548173ffffffffffffffffffffffffffffffffffffffff021916908373ffffffffffffffffffffffffffffffffffffffff160217905550808273ffffffffffffffffffffffffffffffffffffffff168473ffffffffffffffffffffffffffffffffffffffff167fddf252ad1be2c89b69c2b068fc378daa952ba7f163c4a11628f55a4df523b3ef60405160405180910390a46113ab8383836001611a80565b505050565b60006002600083815260200190815260200160002060009054906101000a900473ffffffffffffffffffffffffffffffffffffffff169050919050565b6113f5610f61565b73ffffffffffffffffffffffffffffffffffffffff1661141361085f565b73ffffffffffffffffffffffffffffffffffffffff1614611469576040517f08c379a000000000000000000000000000000000000000000000000000000000815260040161146090612fe2565b60405180910390fd5b565b6000600660009054906101000a900473ffffffffffffffffffffffffffffffffffffffff16905081600660006101000a81548173ffffffffffffffffffffffffffffffffffffffff021916908373ffffffffffffffffffffffffffffffffffffffff1602179055508173ffffffffffffffffffffffffffffffffffffffff168173ffffffffffffffffffffffffffffffffffffffff167f8be0079c531659141344cd1fd0a4f28419497f9722a3daafe3b4186f6b6457e060405160405180910390a35050565b8173ffffffffffffffffffffffffffffffffffffffff168373ffffffffffffffffffffffffffffffffffffffff160361159f576040517f08c379a00000000000000000000000000000000000000000000000000000000081526004016115969061304e565b60405180910390fd5b80600560008573ffffffffffffffffffffffffffffffffffffffff1673ffffffffffffffffffffffffffffffffffffffff16815260200190815260200160002060008473ffffffffffffffffffffffffffffffffffffffff1673ffffffffffffffffffffffffffffffffffffffff16815260200190815260200160002060006101000a81548160ff0219169083151502179055508173ffffffffffffffffffffffffffffffffffffffff168373ffffffffffffffffffffffffffffffffffffffff167f17307eab39ab6107e8899845ad3d59bd9653f200f220920489ca2b5937696c31836040516116909190611ce4565b60405180910390a3505050565b6116a88484846110b7565b6116b484848484611a86565b6116f3576040517f08c379a00000000000000000000000000000000000000000000000000000000081526004016116ea906130e0565b60405180910390fd5b50505050565b60008073ffffffffffffffffffffffffffffffffffffffff1661171b836113b0565b73ffffffffffffffffffffffffffffffffffffffff1614159050919050565b60606009805461174990612560565b80601f016020809104026020016040519081016040528092919081815260200182805461177590612560565b80156117c25780601f10611797576101008083540402835291602001916117c2565b820191906000526020600020905b8154815290600101906020018083116117a557829003601f168201915b5050505050905090565b600081600001549050919050565b6001816000016000828254019250508190555050565b600073ffffffffffffffffffffffffffffffffffffffff168273ffffffffffffffffffffffffffffffffffffffff160361185f576040517f08c379a00000000000000000000000000000000000000000000000000000000081526004016118569061314c565b60405180910390fd5b611868816116f9565b156118a8576040517f08c379a000000000000000000000000000000000000000000000000000000000815260040161189f906131b8565b60405180910390fd5b6118b6600083836001611a7a565b6118bf816116f9565b156118ff576040517f08c379a00000000000000000000000000000000000000000000000000000000081526004016118f6906131b8565b60405180910390fd5b6001600360008473ffffffffffffffffffffffffffffffffffffffff1673ffffffffffffffffffffffffffffffffffffffff16815260200190815260200160002060008282540192505081905550816002600083815260200190815260200160002060006101000a81548173ffffffffffffffffffffffffffffffffffffffff021916908373ffffffffffffffffffffffffffffffffffffffff160217905550808273ffffffffffffffffffffffffffffffffffffffff16600073ffffffffffffffffffffffffffffffffffffffff167fddf252ad1be2c89b69c2b068fc378daa952ba7f163c4a11628f55a4df523b3ef60405160405180910390a4611a09600083836001611a80565b5050565b611a16826116f9565b611a55576040517f08c379a0000000000000000000000000000000000000000000000000000000008152600401611a4c9061324a565b60405180910390fd5b80600860008481526020019081526020016000209081611a7591906129f1565b505050565b50505050565b50505050565b6000611aa78473ffffffffffffffffffffffffffffffffffffffff16611c0d565b15611c00578373ffffffffffffffffffffffffffffffffffffffff1663150b7a02611ad0610f61565b8786866040518563ffffffff1660e01b8152600401611af294939291906132bf565b6020604051808303816000875af1925050508015611b2e57506040513d601f19601f82011682018060405250810190611b2b9190613320565b60015b611bb0573d8060008114611b5e576040519150601f19603f3d011682016040523d82523d6000602084013e611b63565b606091505b506000815103611ba8576040517f08c379a0000000000000000000000000000000000000000000000000000000008152600401611b9f906130e0565b60405180910390fd5b805181602001fd5b63150b7a0260e01b7bffffffffffffffffffffffffffffffffffffffffffffffffffffffff1916817bffffffffffffffffffffffffffffffffffffffffffffffffffffffff191614915050611c05565b600190505b949350505050565b6000808273ffffffffffffffffffffffffffffffffffffffff163b119050919050565b6000604051905090565b600080fd5b600080fd5b60007fffffffff0000000000000000000000000000000000000000000000000000000082169050919050565b611c7981611c44565b8114611c8457600080fd5b50565b600081359050611c9681611c70565b92915050565b600060208284031215611cb257611cb1611c3a565b5b6000611cc084828501611c87565b91505092915050565b60008115159050919050565b611cde81611cc9565b82525050565b6000602082019050611cf96000830184611cd5565b92915050565b600081519050919050565b600082825260208201905092915050565b60005b83811015611d39578082015181840152602081019050611d1e565b60008484015250505050565b6000601f19601f8301169050919050565b6000611d6182611cff565b611d6b8185611d0a565b9350611d7b818560208601611d1b565b611d8481611d45565b840191505092915050565b60006020820190508181036000830152611da98184611d56565b905092915050565b6000819050919050565b611dc481611db1565b8114611dcf57600080fd5b50565b600081359050611de181611dbb565b92915050565b600060208284031215611dfd57611dfc611c3a565b5b6000611e0b84828501611dd2565b91505092915050565b600073ffffffffffffffffffffffffffffffffffffffff82169050919050565b6000611e3f82611e14565b9050919050565b611e4f81611e34565b82525050565b6000602082019050611e6a6000830184611e46565b92915050565b611e7981611e34565b8114611e8457600080fd5b50565b600081359050611e9681611e70565b92915050565b60008060408385031215611eb357611eb2611c3a565b5b6000611ec185828601611e87565b9250506020611ed285828601611dd2565b9150509250929050565b600080600060608486031215611ef557611ef4611c3a565b5b6000611f0386828701611e87565b9350506020611f1486828701611e87565b9250506040611f2586828701611dd2565b9150509250925092565b600060208284031215611f4557611f44611c3a565b5b6000611f5384828501611e87565b91505092915050565b611f6581611db1565b82525050565b6000602082019050611f806000830184611f5c565b92915050565b600080fd5b600080fd5b7f4e487b7100000000000000000000000000000000000000000000000000000000600052604160045260246000fd5b611fc882611d45565b810181811067ffffffffffffffff82111715611fe757611fe6611f90565b5b80604052505050565b6000611ffa611c30565b90506120068282611fbf565b919050565b600067ffffffffffffffff82111561202657612025611f90565b5b61202f82611d45565b9050602081019050919050565b82818337600083830152505050565b600061205e6120598461200b565b611ff0565b90508281526020810184848401111561207a57612079611f8b565b5b61208584828561203c565b509392505050565b600082601f8301126120a2576120a1611f86565b5b81356120b284826020860161204b565b91505092915050565b6000602082840312156120d1576120d0611c3a565b5b600082013567ffffffffffffffff8111156120ef576120ee611c3f565b5b6120fb8482850161208d565b91505092915050565b61210d81611cc9565b811461211857600080fd5b50565b60008135905061212a81612104565b92915050565b6000806040838503121561214757612146611c3a565b5b600061215585828601611e87565b92505060206121668582860161211b565b9150509250929050565b600067ffffffffffffffff82111561218b5761218a611f90565b5b61219482611d45565b9050602081019050919050565b60006121b46121af84612170565b611ff0565b9050828152602081018484840111156121d0576121cf611f8b565b5b6121db84828561203c565b509392505050565b600082601f8301126121f8576121f7611f86565b5b81356122088482602086016121a1565b91505092915050565b6000806000806080858703121561222b5761222a611c3a565b5b600061223987828801611e87565b945050602061224a87828801611e87565b935050604061225b87828801611dd2565b925050606085013567ffffffffffffffff81111561227c5761227b611c3f565b5b612288878288016121e3565b91505092959194509250565b600081519050919050565b600082825260208201905092915050565b6000819050602082019050919050565b6122c981611db1565b82525050565b60006122db83836122c0565b60208301905092915050565b6000602082019050919050565b60006122ff82612294565b612309818561229f565b9350612314836122b0565b8060005b8381101561234557815161232c88826122cf565b9750612337836122e7565b925050600181019050612318565b5085935050505092915050565b600081519050919050565b600082825260208201905092915050565b6000819050602082019050919050565b600082825260208201905092915050565b600061239a82611cff565b6123a4818561237e565b93506123b4818560208601611d1b565b6123bd81611d45565b840191505092915050565b60006123d4838361238f565b905092915050565b6000602082019050919050565b60006123f482612352565b6123fe818561235d565b9350836020820285016124108561236e565b8060005b8581101561244c578484038952815161242d85826123c8565b9450612438836123dc565b925060208a01995050600181019050612414565b50829750879550505050505092915050565b6000604082019050818103600083015261247881856122f4565b9050818103602083015261248c81846123e9565b90509392505050565b600080604083850312156124ac576124ab611c3a565b5b60006124ba85828601611e87565b92505060206124cb85828601611e87565b9150509250929050565b600080604083850312156124ec576124eb611c3a565b5b60006124fa85828601611e87565b925050602083013567ffffffffffffffff81111561251b5761251a611c3f565b5b6125278582860161208d565b9150509250929050565b7f4e487b7100000000000000000000000000000000000000000000000000000000600052602260045260246000fd5b6000600282049050600182168061257857607f821691505b60208210810361258b5761258a612531565b5b50919050565b7f4552433732313a20617070726f76616c20746f2063757272656e74206f776e6560008201527f7200000000000000000000000000000000000000000000000000000000000000602082015250565b60006125ed602183611d0a565b91506125f882612591565b604082019050919050565b6000602082019050818103600083015261261c816125e0565b9050919050565b7f4552433732313a20617070726f76652063616c6c6572206973206e6f7420746f60008201527f6b656e206f776e6572206f7220617070726f76656420666f7220616c6c000000602082015250565b600061267f603d83611d0a565b915061268a82612623565b604082019050919050565b600060208201905081810360008301526126ae81612672565b9050919050565b7f4552433732313a2063616c6c6572206973206e6f7420746f6b656e206f776e6560008201527f72206f7220617070726f76656400000000000000000000000000000000000000602082015250565b6000612711602d83611d0a565b915061271c826126b5565b604082019050919050565b6000602082019050818103600083015261274081612704565b9050919050565b7f4552433732313a20696e76616c696420746f6b656e2049440000000000000000600082015250565b600061277d601883611d0a565b915061278882612747565b602082019050919050565b600060208201905081810360008301526127ac81612770565b9050919050565b7f4552433732313a2061646472657373207a65726f206973206e6f74206120766160008201527f6c6964206f776e65720000000000000000000000000000000000000000000000602082015250565b600061280f602983611d0a565b915061281a826127b3565b604082019050919050565b6000602082019050818103600083015261283e81612802565b9050919050565b60008190508160005260206000209050919050565b60006020601f8301049050919050565b600082821b905092915050565b6000600883026128a77fffffffffffffffffffffffffffffffffffffffffffffffffffffffffffffffff8261286a565b6128b1868361286a565b95508019841693508086168417925050509392505050565b6000819050919050565b60006128ee6128e96128e484611db1565b6128c9565b611db1565b9050919050565b6000819050919050565b612908836128d3565b61291c612914826128f5565b848454612877565b825550505050565b600090565b612931612924565b61293c8184846128ff565b505050565b5b8181101561296057612955600082612929565b600181019050612942565b5050565b601f8211156129a55761297681612845565b61297f8461285a565b8101602085101561298e578190505b6129a261299a8561285a565b830182612941565b50505b505050565b600082821c905092915050565b60006129c8600019846008026129aa565b1980831691505092915050565b60006129e183836129b7565b9150826002028217905092915050565b6129fa82611cff565b67ffffffffffffffff811115612a1357612a12611f90565b5b612a1d8254612560565b612a28828285612964565b600060209050601f831160018114612a5b5760008415612a49578287015190505b612a5385826129d5565b865550612abb565b601f198416612a6986612845565b60005b82811015612a9157848901518255600182019150602085019450602081019050612a6c565b86831015612aae5784890151612aaa601f8916826129b7565b8355505b6001600288020188555050505b505050505050565b7f4552433732314d657461646174613a2055524920717565727920666f72206e6f60008201527f6e6578697374656e7420746f6b656e0000000000000000000000000000000000602082015250565b6000612b1f602f83611d0a565b9150612b2a82612ac3565b604082019050919050565b60006020820190508181036000830152612b4e81612b12565b9050919050565b600081905092915050565b6000612b6b82611cff565b612b758185612b55565b9350612b85818560208601611d1b565b80840191505092915050565b6000819050919050565b612bac612ba782611db1565b612b91565b82525050565b6000612bbe8285612b60565b9150612bca8284612b9b565b6020820191508190509392505050565b6000612be68285612b60565b9150612bf28284612b60565b91508190509392505050565b7f4e487b7100000000000000000000000000000000000000000000000000000000600052601160045260246000fd5b6000612c3882611db1565b9150612c4383611db1565b9250828203905081811115612c5b57612c5a612bfe565b5b92915050565b7f4e487b7100000000000000000000000000000000000000000000000000000000600052603260045260246000fd5b6000612c9b82611db1565b91507fffffffffffffffffffffffffffffffffffffffffffffffffffffffffffffffff8203612ccd57612ccc612bfe565b5b600182019050919050565b7f546f6b656e205552492063616e6e6f7420626520656d70747900000000000000600082015250565b6000612d0e601983611d0a565b9150612d1982612cd8565b602082019050919050565b60006020820190508181036000830152612d3d81612d01565b9050919050565b7f526563697069656e7420616464726573732063616e6e6f74206265207a65726f600082015250565b6000612d7a602083611d0a565b9150612d8582612d44565b602082019050919050565b60006020820190508181036000830152612da981612d6d565b9050919050565b6000604082019050612dc56000830185611f5c565b8181036020830152612dd78184611d56565b90509392505050565b7f4f776e61626c653a206e6577206f776e657220697320746865207a65726f206160008201527f6464726573730000000000000000000000000000000000000000000000000000602082015250565b6000612e3c602683611d0a565b9150612e4782612de0565b604082019050919050565b60006020820190508181036000830152612e6b81612e2f565b9050919050565b7f4552433732313a207472616e736665722066726f6d20696e636f72726563742060008201527f6f776e6572000000000000000000000000000000000000000000000000000000602082015250565b6000612ece602583611d0a565b9150612ed982612e72565b604082019050919050565b60006020820190508181036000830152612efd81612ec1565b9050919050565b7f4552433732313a207472616e7366657220746f20746865207a65726f2061646460008201527f7265737300000000000000000000000000000000000000000000000000000000602082015250565b6000612f60602483611d0a565b9150612f6b82612f04565b604082019050919050565b60006020820190508181036000830152612f8f81612f53565b9050919050565b7f4f776e61626c653a2063616c6c6572206973206e6f7420746865206f776e6572600082015250565b6000612fcc602083611d0a565b9150612fd782612f96565b602082019050919050565b60006020820190508181036000830152612ffb81612fbf565b9050919050565b7f4552433732313a20617070726f766520746f2063616c6c657200000000000000600082015250565b6000613038601983611d0a565b915061304382613002565b602082019050919050565b600060208201905081810360008301526130678161302b565b9050919050565b7f4552433732313a207472616e7366657220746f206e6f6e20455243373231526560008201527f63656976657220696d706c656d656e7465720000000000000000000000000000602082015250565b60006130ca603283611d0a565b91506130d58261306e565b604082019050919050565b600060208201905081810360008301526130f9816130bd565b9050919050565b7f4552433732313a206d696e7420746f20746865207a65726f2061646472657373600082015250565b6000613136602083611d0a565b915061314182613100565b602082019050919050565b6000602082019050818103600083015261316581613129565b9050919050565b7f4552433732313a20746f6b656e20616c7265616479206d696e74656400000000600082015250565b60006131a2601c83611d0a565b91506131ad8261316c565b602082019050919050565b600060208201905081810360008301526131d181613195565b9050919050565b7f4552433732314d657461646174613a2055524920736574206f66206e6f6e657860008201527f697374656e7420746f6b656e0000000000000000000000000000000000000000602082015250565b6000613234602c83611d0a565b915061323f826131d8565b604082019050919050565b6000602082019050818103600083015261326381613227565b9050919050565b600081519050919050565b600082825260208201905092915050565b60006132918261326a565b61329b8185613275565b93506132ab818560208601611d1b565b6132b481611d45565b840191505092915050565b60006080820190506132d46000830187611e46565b6132e16020830186611e46565b6132ee6040830185611f5c565b81810360608301526133008184613286565b905095945050505050565b60008151905061331a81611c70565b92915050565b60006020828403121561333657613335611c3a565b5b60006133448482850161330b565b9150509291505056fea2646970667358221220a9b40b95b73ceb3bdd6911031e7944238ba31dcbf502e04d2ecd98ef244ec30464736f6c634300081b0033",
  "linkReferences": {},
  "deployedLinkReferences": {}
}