{
  "_format": "hh-sol-artifact-1",
  "contractName": "Wallet",
  "sourceName": "contracts/Wallet.sol",
  "abi": [
    {
      "inputs": [
        {
          "internalType": "address[]",
          "name": "_owners",
          "type": "address[]"
        },
        {
          "internalType": "uint256",
          "name": "_requiredApprovals",
          "type": "uint256"
        }
      ],
      "stateMutability": "nonpayable",
      "type": "constructor"
    },
    {
      "anonymous": false,
      "inputs": [
        {
          "indexed": true,
          "internalType": "address",
          "name": "sender",
          "type": "address"
        },
        {
          "indexed": false,
          "internalType": "uint256",
          "name": "amount",
          "type": "uint256"
        },
        {
          "indexed": false,
          "internalType": "uint256",
          "name": "contractBalance",
          "type": "uint256"
        }
      ],
      "name": "Deposit",
      "type": "event"
    },
    {
      "anonymous": false,
      "inputs": [
        {
          "indexed": true,
          "internalType": "uint256",
          "name": "transactionId",
          "type": "uint256"
        },
        {
          "indexed": true,
          "internalType": "address",
          "name": "approver",
          "type": "address"
        }
      ],
      "name": "TransactionApproved",
      "type": "event"
    },
    {
      "anonymous": false,
      "inputs": [
        {
          "indexed": true,
          "internalType": "uint256",
          "name": "transactionId",
          "type": "uint256"
        },
        {
          "indexed": true,
          "internalType": "address",
          "name": "executor",
          "type": "address"
        }
      ],
      "name": "TransactionExecuted",
      "type": "event"
    },
    {
      "anonymous": false,
      "inputs": [
        {
          "indexed": true,
          "internalType": "uint256",
          "name": "transactionId",
          "type": "uint256"
        },
        {
          "indexed": true,
          "internalType": "address",
          "name": "to",
          "type": "address"
        },
        {
          "indexed": false,
          "internalType": "uint256",
          "name": "amount",
          "type": "uint256"
        }
      ],
      "name": "TransactionSubmitted",
      "type": "event"
    },
    {
      "inputs": [
        {
          "internalType": "uint256",
          "name": "",
          "type": "uint256"
        },
        {
          "internalType": "address",
          "name": "",
          "type": "address"
        }
      ],
      "name": "approvals",
      "outputs": [
        {
          "internalType": "bool",
          "name": "",
          "type": "bool"
        }
      ],
      "stateMutability": "view",
      "type": "function"
    },
    {
      "inputs": [
        {
          "internalType": "uint256",
          "name": "_transactionId",
          "type": "uint256"
        }
      ],
      "name": "approveTransaction",
      "outputs": [],
      "stateMutability": "nonpayable",
      "type": "function"
    },
    {
      "inputs": [],
      "name": "deposit",
      "outputs": [],
      "stateMutability": "payable",
      "type": "function"
    },
    {
      "inputs": [
        {
          "internalType": "uint256",
          "name": "_transactionId",
          "type": "uint256"
        }
      ],
      "name": "executeTransaction",
      "outputs": [],
      "stateMutability": "nonpayable",
      "type": "function"
    },
    {
      "inputs": [],
      "name": "getOwners",
      "outputs": [
        {
          "internalType": "address[]",
          "name": "",
          "type": "address[]"
        }
      ],
      "stateMutability": "view",
      "type": "function"
    },
    {
      "inputs": [
        {
          "internalType": "uint256",
          "name": "_transactionId",
          "type": "uint256"
        }
      ],
      "name": "getTransactionDetails",
      "outputs": [
        {
          "internalType": "address",
          "name": "to",
          "type": "address"
        },
        {
          "internalType": "uint256",
          "name": "amount",
          "type": "uint256"
        },
        {
          "internalType": "uint256",
          "name": "approvalCount",
          "type": "uint256"
        },
        {
          "internalType": "bool",
          "name": "executed",
          "type": "bool"
        }
      ],
      "stateMutability": "view",
      "type": "function"
    },
    {
      "inputs": [],
      "name": "getTransactions",
      "outputs": [
        {
          "components": [
            {
              "internalType": "address",
              "name": "to",
              "type": "address"
            },
            {
              "internalType": "uint256",
              "name": "amount",
              "type": "uint256"
            },
            {
              "internalType": "uint256",
              "name": "approvalCount",
              "type": "uint256"
            },
            {
              "internalType": "bool",
              "name": "executed",
              "type": "bool"
            }
          ],
          "internalType": "struct Wallet.StructTransaction[]",
          "name": "",
          "type": "tuple[]"
        }
      ],
      "stateMutability": "view",
      "type": "function"
    },
    {
      "inputs": [
        {
          "internalType": "address",
          "name": "",
          "type": "address"
        }
      ],
      "name": "isOwner",
      "outputs": [
        {
          "internalType": "bool",
          "name": "",
          "type": "bool"
        }
      ],
      "stateMutability": "view",
      "type": "function"
    },
    {
      "inputs": [
        {
          "internalType": "uint256",
          "name": "",
          "type": "uint256"
        }
      ],
      "name": "owners",
      "outputs": [
        {
          "internalType": "address",
          "name": "",
          "type": "address"
        }
      ],
      "stateMutability": "view",
      "type": "function"
    },
    {
      "inputs": [],
      "name": "requiredApprovals",
      "outputs": [
        {
          "internalType": "uint256",
          "name": "",
          "type": "uint256"
        }
      ],
      "stateMutability": "view",
      "type": "function"
    },
    {
      "inputs": [
        {
          "internalType": "address",
          "name": "_to",
          "type": "address"
        },
        {
          "internalType": "uint256",
          "name": "_amount",
          "type": "uint256"
        }
      ],
      "name": "submitTransaction",
      "outputs": [],
      "stateMutability": "nonpayable",
      "type": "function"
    },
    {
      "inputs": [
        {
          "internalType": "uint256",
          "name": "",
          "type": "uint256"
        }
      ],
      "name": "transactions",
      "outputs": [
        {
          "internalType": "address",
          "name": "to",
          "type": "address"
        },
        {
          "internalType": "uint256",
          "name": "amount",
          "type": "uint256"
        },
        {
          "internalType": "uint256",
          "name": "approvalCount",
          "type": "uint256"
        },
        {
          "internalType": "bool",
          "name": "executed",
          "type": "bool"
        }
      ],
      "stateMutability": "view",
      "type": "function"
    }
  ],
  "bytecode": "0x608060405234801561001057600080fd5b506040516120ed3803806120ed8339818101604052810190610032919061054f565b6000825111610076576040517f08c379a000000000000000000000000000000000000000000000000000000000815260040161006d90610608565b60405180910390fd5b600081118015610087575081518111155b6100c6576040517f08c379a00000000000000000000000000000000000000000000000000000000081526004016100bd9061069a565b60405180910390fd5b60005b825181101561028157600073ffffffffffffffffffffffffffffffffffffffff168382815181106100fd576100fc6106ba565b5b602002602001015173ffffffffffffffffffffffffffffffffffffffff160361015b576040517f08c379a000000000000000000000000000000000000000000000000000000000815260040161015290610735565b60405180910390fd5b60026000848381518110610172576101716106ba565b5b602002602001015173ffffffffffffffffffffffffffffffffffffffff1673ffffffffffffffffffffffffffffffffffffffff16815260200190815260200160002060009054906101000a900460ff1615610202576040517f08c379a00000000000000000000000000000000000000000000000000000000081526004016101f9906107a1565b60405180910390fd5b60016002600085848151811061021b5761021a6106ba565b5b602002602001015173ffffffffffffffffffffffffffffffffffffffff1673ffffffffffffffffffffffffffffffffffffffff16815260200190815260200160002060006101000a81548160ff02191690831515021790555080806001019150506100c9565b5081600090805190602001906102989291906102a7565b508060018190555050506107c1565b828054828255906000526020600020908101928215610320579160200282015b8281111561031f5782518260006101000a81548173ffffffffffffffffffffffffffffffffffffffff021916908373ffffffffffffffffffffffffffffffffffffffff160217905550916020019190600101906102c7565b5b50905061032d9190610331565b5090565b5b8082111561034a576000816000905550600101610332565b5090565b6000604051905090565b600080fd5b600080fd5b600080fd5b6000601f19601f8301169050919050565b7f4e487b7100000000000000000000000000000000000000000000000000000000600052604160045260246000fd5b6103b082610367565b810181811067ffffffffffffffff821117156103cf576103ce610378565b5b80604052505050565b60006103e261034e565b90506103ee82826103a7565b919050565b600067ffffffffffffffff82111561040e5761040d610378565b5b602082029050602081019050919050565b600080fd5b600073ffffffffffffffffffffffffffffffffffffffff82169050919050565b600061044f82610424565b9050919050565b61045f81610444565b811461046a57600080fd5b50565b60008151905061047c81610456565b92915050565b6000610495610490846103f3565b6103d8565b905080838252602082019050602084028301858111156104b8576104b761041f565b5b835b818110156104e157806104cd888261046d565b8452602084019350506020810190506104ba565b5050509392505050565b600082601f830112610500576104ff610362565b5b8151610510848260208601610482565b91505092915050565b6000819050919050565b61052c81610519565b811461053757600080fd5b50565b60008151905061054981610523565b92915050565b6000806040838503121561056657610565610358565b5b600083015167ffffffffffffffff8111156105845761058361035d565b5b610590858286016104eb565b92505060206105a18582860161053a565b9150509250929050565b600082825260208201905092915050565b7f4465626520686162657220616c206d656e6f7320756e206f776e657200000000600082015250565b60006105f2601c836105ab565b91506105fd826105bc565b602082019050919050565b60006020820190508181036000830152610621816105e5565b9050919050565b7f4e756d65726f20696e76616c69646f206465206170726f626163696f6e65732060008201527f7265717565726964617300000000000000000000000000000000000000000000602082015250565b6000610684602a836105ab565b915061068f82610628565b604082019050919050565b600060208201905081810360008301526106b381610677565b9050919050565b7f4e487b7100000000000000000000000000000000000000000000000000000000600052603260045260246000fd5b7f4f776e657220696e76616c69646f000000000000000000000000000000000000600082015250565b600061071f600e836105ab565b915061072a826106e9565b602082019050919050565b6000602082019050818103600083015261074e81610712565b9050919050565b7f4f776e6572206475706c696361646f0000000000000000000000000000000000600082015250565b600061078b600f836105ab565b915061079682610755565b602082019050919050565b600060208201905081810360008301526107ba8161077e565b9050919050565b61191d806107d06000396000f3fe6080604052600436106100a75760003560e01c806399c1aadc1161006457806399c1aadc146101e35780639ace38c21461020e578063a0e67e2b1461024e578063ab2850da14610279578063d0e30db0146102b6578063ee22610b146102c0576100a7565b8063025e7c27146100ac5780630fa683d3146100e95780631d43b65314610129578063242232d1146101525780632f54bf6e1461017b57806383920e90146101b8575b600080fd5b3480156100b857600080fd5b506100d360048036038101906100ce9190610faa565b6102e9565b6040516100e09190611018565b60405180910390f35b3480156100f557600080fd5b50610110600480360381019061010b9190610faa565b610328565b604051610120949392919061105d565b60405180910390f35b34801561013557600080fd5b50610150600480360381019061014b91906110ce565b610451565b005b34801561015e57600080fd5b5061017960048036038101906101749190610faa565b6106d6565b005b34801561018757600080fd5b506101a2600480360381019061019d919061110e565b6109b3565b6040516101af919061113b565b60405180910390f35b3480156101c457600080fd5b506101cd6109d3565b6040516101da9190611287565b60405180910390f35b3480156101ef57600080fd5b506101f8610ab7565b60405161020591906112a9565b60405180910390f35b34801561021a57600080fd5b5061023560048036038101906102309190610faa565b610abd565b604051610245949392919061105d565b60405180910390f35b34801561025a57600080fd5b50610263610b2a565b6040516102709190611373565b60405180910390f35b34801561028557600080fd5b506102a0600480360381019061029b9190611395565b610bb8565b6040516102ad919061113b565b60405180910390f35b6102be610be7565b005b3480156102cc57600080fd5b506102e760048036038101906102e29190610faa565b610c7c565b005b600081815481106102f957600080fd5b906000526020600020016000915054906101000a900473ffffffffffffffffffffffffffffffffffffffff1681565b600080600080846003805490508110610376576040517f08c379a000000000000000000000000000000000000000000000000000000000815260040161036d90611432565b60405180910390fd5b60006003878154811061038c5761038b611452565b5b90600052602060002090600402016040518060800160405290816000820160009054906101000a900473ffffffffffffffffffffffffffffffffffffffff1673ffffffffffffffffffffffffffffffffffffffff1673ffffffffffffffffffffffffffffffffffffffff16815260200160018201548152602001600282015481526020016003820160009054906101000a900460ff16151515158152505090508060000151816020015182604001518360600151955095509550955050509193509193565b600260003373ffffffffffffffffffffffffffffffffffffffff1673ffffffffffffffffffffffffffffffffffffffff16815260200190815260200160002060009054906101000a900460ff166104dd576040517f08c379a00000000000000000000000000000000000000000000000000000000081526004016104d4906114cd565b60405180910390fd5b600073ffffffffffffffffffffffffffffffffffffffff168273ffffffffffffffffffffffffffffffffffffffff160361054c576040517f08c379a000000000000000000000000000000000000000000000000000000000815260040161054390611539565b60405180910390fd5b6000811161058f576040517f08c379a0000000000000000000000000000000000000000000000000000000008152600401610586906115a5565b60405180910390fd5b600360405180608001604052808473ffffffffffffffffffffffffffffffffffffffff1681526020018381526020016000815260200160001515815250908060018154018082558091505060019003906000526020600020906004020160009091909190915060008201518160000160006101000a81548173ffffffffffffffffffffffffffffffffffffffff021916908373ffffffffffffffffffffffffffffffffffffffff160217905550602082015181600101556040820151816002015560608201518160030160006101000a81548160ff02191690831515021790555050508173ffffffffffffffffffffffffffffffffffffffff16600160038054905061069b91906115f4565b7f6974e8be5912ae917b788db2884a51e71cbe0f0979af347e6a32d07d52ef82a3836040516106ca91906112a9565b60405180910390a35050565b600260003373ffffffffffffffffffffffffffffffffffffffff1673ffffffffffffffffffffffffffffffffffffffff16815260200190815260200160002060009054906101000a900460ff16610762576040517f08c379a0000000000000000000000000000000000000000000000000000000008152600401610759906114cd565b60405180910390fd5b8060038054905081106107aa576040517f08c379a00000000000000000000000000000000000000000000000000000000081526004016107a190611432565b60405180910390fd5b81600381815481106107bf576107be611452565b5b906000526020600020906004020160030160009054906101000a900460ff161561081e576040517f08c379a000000000000000000000000000000000000000000000000000000000815260040161081590611674565b60405180910390fd5b826004600082815260200190815260200160002060003373ffffffffffffffffffffffffffffffffffffffff1673ffffffffffffffffffffffffffffffffffffffff16815260200190815260200160002060009054906101000a900460ff16156108bd576040517f08c379a00000000000000000000000000000000000000000000000000000000081526004016108b4906116e0565b60405180910390fd5b6000600385815481106108d3576108d2611452565b5b9060005260206000209060040201905060016004600087815260200190815260200160002060003373ffffffffffffffffffffffffffffffffffffffff1673ffffffffffffffffffffffffffffffffffffffff16815260200190815260200160002060006101000a81548160ff02191690831515021790555060018160020160008282546109619190611700565b925050819055503373ffffffffffffffffffffffffffffffffffffffff16857f924813d717e221b5f46dcd8a56da1679e4612584ab3237d55e5faabf6f6a307960405160405180910390a35050505050565b60026020528060005260406000206000915054906101000a900460ff1681565b60606003805480602002602001604051908101604052809291908181526020016000905b82821015610aae57838290600052602060002090600402016040518060800160405290816000820160009054906101000a900473ffffffffffffffffffffffffffffffffffffffff1673ffffffffffffffffffffffffffffffffffffffff1673ffffffffffffffffffffffffffffffffffffffff16815260200160018201548152602001600282015481526020016003820160009054906101000a900460ff161515151581525050815260200190600101906109f7565b50505050905090565b60015481565b60038181548110610acd57600080fd5b90600052602060002090600402016000915090508060000160009054906101000a900473ffffffffffffffffffffffffffffffffffffffff16908060010154908060020154908060030160009054906101000a900460ff16905084565b60606000805480602002602001604051908101604052809291908181526020018280548015610bae57602002820191906000526020600020905b8160009054906101000a900473ffffffffffffffffffffffffffffffffffffffff1673ffffffffffffffffffffffffffffffffffffffff1681526020019060010190808311610b64575b5050505050905090565b60046020528160005260406000206020528060005260406000206000915091509054906101000a900460ff1681565b60003411610c2a576040517f08c379a0000000000000000000000000000000000000000000000000000000008152600401610c2190611780565b60405180910390fd5b3373ffffffffffffffffffffffffffffffffffffffff167f90890809c654f11d6e72a28fa60149770a0d11ec6c92319d6ceb2bb0a4ea1a153447604051610c729291906117a0565b60405180910390a2565b600260003373ffffffffffffffffffffffffffffffffffffffff1673ffffffffffffffffffffffffffffffffffffffff16815260200190815260200160002060009054906101000a900460ff16610d08576040517f08c379a0000000000000000000000000000000000000000000000000000000008152600401610cff906114cd565b60405180910390fd5b806003805490508110610d50576040517f08c379a0000000000000000000000000000000000000000000000000000000008152600401610d4790611432565b60405180910390fd5b8160038181548110610d6557610d64611452565b5b906000526020600020906004020160030160009054906101000a900460ff1615610dc4576040517f08c379a0000000000000000000000000000000000000000000000000000000008152600401610dbb90611674565b60405180910390fd5b600060038481548110610dda57610dd9611452565b5b9060005260206000209060040201905060015481600201541015610e33576040517f08c379a0000000000000000000000000000000000000000000000000000000008152600401610e2a90611815565b60405180910390fd5b60018160030160006101000a81548160ff02191690831515021790555060008160000160009054906101000a900473ffffffffffffffffffffffffffffffffffffffff1673ffffffffffffffffffffffffffffffffffffffff168260010154604051610e9e90611866565b60006040518083038185875af1925050503d8060008114610edb576040519150601f19603f3d011682016040523d82523d6000602084013e610ee0565b606091505b5050905080610f24576040517f08c379a0000000000000000000000000000000000000000000000000000000008152600401610f1b906118c7565b60405180910390fd5b3373ffffffffffffffffffffffffffffffffffffffff16857fefc13bdcf58f184ea7cae26b499fb33b539e01d0197cea456f3ada289b8cf19b60405160405180910390a35050505050565b600080fd5b6000819050919050565b610f8781610f74565b8114610f9257600080fd5b50565b600081359050610fa481610f7e565b92915050565b600060208284031215610fc057610fbf610f6f565b5b6000610fce84828501610f95565b91505092915050565b600073ffffffffffffffffffffffffffffffffffffffff82169050919050565b600061100282610fd7565b9050919050565b61101281610ff7565b82525050565b600060208201905061102d6000830184611009565b92915050565b61103c81610f74565b82525050565b60008115159050919050565b61105781611042565b82525050565b60006080820190506110726000830187611009565b61107f6020830186611033565b61108c6040830185611033565b611099606083018461104e565b95945050505050565b6110ab81610ff7565b81146110b657600080fd5b50565b6000813590506110c8816110a2565b92915050565b600080604083850312156110e5576110e4610f6f565b5b60006110f3858286016110b9565b925050602061110485828601610f95565b9150509250929050565b60006020828403121561112457611123610f6f565b5b6000611132848285016110b9565b91505092915050565b6000602082019050611150600083018461104e565b92915050565b600081519050919050565b600082825260208201905092915050565b6000819050602082019050919050565b61118b81610ff7565b82525050565b61119a81610f74565b82525050565b6111a981611042565b82525050565b6080820160008201516111c56000850182611182565b5060208201516111d86020850182611191565b5060408201516111eb6040850182611191565b5060608201516111fe60608501826111a0565b50505050565b600061121083836111af565b60808301905092915050565b6000602082019050919050565b600061123482611156565b61123e8185611161565b935061124983611172565b8060005b8381101561127a5781516112618882611204565b975061126c8361121c565b92505060018101905061124d565b5085935050505092915050565b600060208201905081810360008301526112a18184611229565b905092915050565b60006020820190506112be6000830184611033565b92915050565b600081519050919050565b600082825260208201905092915050565b6000819050602082019050919050565b60006112fc8383611182565b60208301905092915050565b6000602082019050919050565b6000611320826112c4565b61132a81856112cf565b9350611335836112e0565b8060005b8381101561136657815161134d88826112f0565b975061135883611308565b925050600181019050611339565b5085935050505092915050565b6000602082019050818103600083015261138d8184611315565b905092915050565b600080604083850312156113ac576113ab610f6f565b5b60006113ba85828601610f95565b92505060206113cb858286016110b9565b9150509250929050565b600082825260208201905092915050565b7f5472616e73616363696f6e206e6f206578697374650000000000000000000000600082015250565b600061141c6015836113d5565b9150611427826113e6565b602082019050919050565b6000602082019050818103600083015261144b8161140f565b9050919050565b7f4e487b7100000000000000000000000000000000000000000000000000000000600052603260045260246000fd5b7f4e6f20657320756e206f776e6572000000000000000000000000000000000000600082015250565b60006114b7600e836113d5565b91506114c282611481565b602082019050919050565b600060208201905081810360008301526114e6816114aa565b9050919050565b7f446972656363696f6e20696e76616c6964610000000000000000000000000000600082015250565b60006115236012836113d5565b915061152e826114ed565b602082019050919050565b6000602082019050818103600083015261155281611516565b9050919050565b7f43616e7469646164206465626520736572206d61796f72206120300000000000600082015250565b600061158f601b836113d5565b915061159a82611559565b602082019050919050565b600060208201905081810360008301526115be81611582565b9050919050565b7f4e487b7100000000000000000000000000000000000000000000000000000000600052601160045260246000fd5b60006115ff82610f74565b915061160a83610f74565b9250828203905081811115611622576116216115c5565b5b92915050565b7f5472616e73616363696f6e20796120656a656375746164610000000000000000600082015250565b600061165e6018836113d5565b915061166982611628565b602082019050919050565b6000602082019050818103600083015261168d81611651565b9050919050565b7f5472616e73616363696f6e207961206170726f62616461000000000000000000600082015250565b60006116ca6017836113d5565b91506116d582611694565b602082019050919050565b600060208201905081810360008301526116f9816116bd565b9050919050565b600061170b82610f74565b915061171683610f74565b925082820190508082111561172e5761172d6115c5565b5b92915050565b7f446562657320656e766961722045746865720000000000000000000000000000600082015250565b600061176a6012836113d5565b915061177582611734565b602082019050919050565b600060208201905081810360008301526117998161175d565b9050919050565b60006040820190506117b56000830185611033565b6117c26020830184611033565b9392505050565b7f4e6f20737566696369656e746573206170726f626163696f6e65730000000000600082015250565b60006117ff601b836113d5565b915061180a826117c9565b602082019050919050565b6000602082019050818103600083015261182e816117f2565b9050919050565b600081905092915050565b50565b6000611850600083611835565b915061185b82611840565b600082019050919050565b600061187182611843565b9150819050919050565b7f5472616e73666572656e6369612066616c6c6964610000000000000000000000600082015250565b60006118b16015836113d5565b91506118bc8261187b565b602082019050919050565b600060208201905081810360008301526118e0816118a4565b905091905056fea26469706673582212204c56b7117657c9a7ecb86a17245c84944afb9ade72d8870f49e095e6a622a4f664736f6c634300081b0033",
  "linkReferences": {},
  "deployedLinkReferences": {}
}